:100000000C944A000C945C000C945C000C945C0012
:100010000C945C000C945C000C945C000C945C00F0
:100020000C945C000C945C000C945C000C945C00E0
:100030000C945C000C945C000C945C000C945C00D0
:100040000C945C000C945C000C945C000C945C00C0
:100050000C945C000C945C000C945C000C945C00B0
:100060000C945C000C945C000C945C000C945C00A0
:100070000C945C000C945C000C945C000C945C0090
:100080000C945C000C945C000C945C000C945C0080
:100090000C945C0011241FBECFEFD0E1DEBFCDBFBA
:1000A00021E0A0E0B1E001C01D92A834B207E1F761
:1000B0000E94AD030C94D7030C940000882369F0D0
:1000C000E62FF0E0EC5FFE4F21E030E001C0220FB0
:1000D0004A95EAF78081822B80830895E82FF0E02B
:1000E000EC5FFE4F808190E002C0959587956A9500
:1000F000E2F7817008958E3008F04DC0E82FF0E0EF
:10010000E752FC4F0C94CE0323E040E051E080E046
:100110000C94EA0228E041E051E081E0F9CF24E0CC
:1001200042E051E082E0F4CF28E043E051E083E098
:10013000EFCF24E044E051E084E0EACF28E045E05E
:1001400051E085E0E5CF27E040E052E086E0E0CFF7
:1001500028E041E052E087E0DBCF23E042E052E0DC
:1001600088E0D6CF28E043E052E089E0D1CF28E014
:1001700041E054E08AE0CCCF28E043E054E08BE05B
:10018000C7CF28E04BE054E08CE0C2CF28E041E04C
:1001900055E08DE0BDCF08950C94F9020C9447030F
:1001A0001F93CF93DF93182FEB0164E071E00E945F
:1001B00064031E3000F5E12FF0E0E951FC4F0C9490
:1001C000CE0380910401888360E081E00E946E008C
:1001D000898361E081E00E946E008A8362E081E0B1
:1001E0000E946E008B8363E081E00E946E008C832E
:1001F000809106018D83DF91CF911F9108958091A9
:1002000004018883809105018983809106018A8396
:10021000809107018B83EFCF8091040190910501BC
:10022000A0910601B091070188839983AA83BB83BB
:10023000E2CF8091040188838091050190910601AD
:100240009A83898380910701909108019C838B8315
:10025000809109018D8380910A018E8380910B0129
:100260008F708F8380910B0182958F708887C3CFA9
:100270008091040190910501998388838091060102
:10028000909107019B838A838091080190910901D5
:100290009D838C8360E086E00E946E008E8361E027
:1002A00086E00E946E008F8362E086E00E946E000E
:1002B000DDCF80910401909105019983888380911D
:1002C0000601909107019B838A8380910801909198
:1002D00009019D838C8380910A0190910B019F837A
:1002E0008E8389CF80910401909105019983888341
:1002F00060E082E00E946E008A8361E082E00E94FA
:100300006E008B8362E082E00E946E008C8363E06B
:1003100082E00E946E008D8364E082E00E946E00A5
:100320008E8365E082E00E946E008F8366E082E04B
:10033000BDCF70910401609105015091060140917B
:100340000701309108012091090190910A018091E3
:100350000B01788369835A834B833C832D839E836F
:100360008F8349CF80910401888380910601909109
:1003700007019A8389833FCF809104019091050101
:10038000A0910601B091070188839983AA83BB835A
:1003900032CF8091080190910901A0910A01B0919A
:1003A0000B01F2CF8091040190910501A09106010B
:1003B000B091070188839983AA83BB838091080148
:1003C00090910901A0910A01B0910B018C839D834A
:1003D000AE83BF8310CF1F93CF93DF93182FEB0112
:1003E000E4E0F1E088E0DF011D928A95E9F71E3034
:1003F00000F5E12FF0E0EB50FC4F0C94CE03888128
:100400008093040140E061E089810E945E0041E048
:1004100061E08A810E945E0042E061E08B810E947F
:100420005E0043E061E08C810E945E008D818093DC
:10043000060164E071E0812FDF91CF911F910C9450
:1004400082038881809304018981809305018A81D8
:10045000809306018B8180930701EBCF8881809385
:10046000040199818A8190930501809306019B8103
:100470008C8190930701809308018D8180930901FD
:100480008E8180930A012885B0E12B9F9001112471
:100490008F818F70822B80930B01CBCF98818981C4
:1004A00090930401809305019A818B8190930601BA
:1004B000809307019C818D819093080180930901AD
:1004C00040E066E08E810E945E0041E066E08F8140
:1004D0000E945E0042E066E088850E945E00A9CF2F
:1004E0009881898190930401809305019A818B8181
:1004F00090930601809307019C818D819093080160
:10050000809309019E818F8190930A01C4CF9881C5
:100510008981909304018093050140E062E08A8123
:100520000E945E0041E062E08B810E945E0042E03A
:1005300062E08C810E945E0043E062E08D810E9457
:100540005E0044E062E08E810E945E0045E062E071
:100550008F810E945E0046E062E0BECF78816981B3
:100560005A814B813C812D819E818F817093040142
:1005700060930501509306014093070130930801F1
:1005800020930901C1CF88818093040199818A81D8
:100590009093060160CF388129819A818B813093B5
:1005A000040120930501F4CF388129819A818B8140
:1005B000E5CF388129819A818B8130930401209382
:1005C000050190930601809307013C812D819E8156
:1005D0008F81D4CF90E0DC01A45FBE4F6C93880F75
:1005E000991FFC01E45FFE4F508B47879D962C932B
:1005F0000895CF93DF93579A8EE08093E2008CE0CA
:100600008093E30087E38093E400ABE1B1E0ECE0AA
:10061000F1E080E04FEF50EE65E08093ED002D912A
:100620003D9193E0369527959A95E1F72093F30055
:10063000ED01229798819295990F907E9093F20008
:100640001092F1001092F0004093F7005093F600E2
:100650001092F5006093F4001092EE0095A590932F
:10066000EF0090813196913029F49091EF009068DD
:100670009093EF00805F803F81F682E08093D80006
:100680008091D90082FFFCCFDF91CF910895282F70
:10069000482F50E0883068F49091DC00892F90E07A
:1006A00002C0959587952A95E2F78095909581707F
:1006B00008958091DD0090E04850510902C0959561
:1006C00087954A95E2F7F1CF982F9295907F909376
:1006D000ED00962F272FE82FF0E0E75CFE4F3081EA
:1006E000892F861B831730F08091EF0080688093FC
:1006F000EF000895A92FB22F8091FA008D939A2FC1
:100700002B2FEDCF1F93CF93DF93C82FD62F172F0B
:100710000E9447038823A9F08C2F8295807F8093C5
:10072000ED008D2F212FEC2FF0E0E75CFE4F3081A4
:10073000982F9D1B931748F08091EF008064809361
:10074000EF00DF91CF911F910895A82FB22F8D91C7
:100750008093FA008A2F2B2FEACF62E084E00E9478
:100760007B000E94CC0088E590E0A0E0B0E08093A0
:10077000000190930101A0930201B093030160E096
:1007800071E084E00E94EB012FEF84E39CE02150B4
:1007900080409040E1F700C00000F1CFEE0FFF1F56
:1007A0000024001C0BBE0790F691E02D0994F894EC
:1007B000FFCF84008A008F00940099009E00A30060
:1007C000A800AD00B200B700BC00C100C600E10047
:1007D0005901FF0059010C01190138015901720139
:1007E0009901B201BC01C901D201FF0170022102CD
:1007F0007002CB022E024E0270028702AE02C302CA
:06080000CB02D402D90274
:00000001FF
