:100000000C944A000C945C000C945C000C945C0012
:100010000C945C000C945C000C945C000C945C00F0
:100020000C945C000C945C000C945C000C948A04AE
:100030000C945C000C945C000C945C000C945C00D0
:100040000C94DB040C945C000C945C000C945C003D
:100050000C945C000C945C000C945C000C945C00B0
:100060000C945C000C945C000C945C000C945C00A0
:100070000C945C000C945C000C945C000C945C0090
:100080000C945C000C945C000C945C000C945C0080
:100090000C945C0011241FBECFEFD0E1DEBFCDBFBA
:1000A00021E0A0E0B1E001C01D92AE39B207E1F756
:1000B0000E9413050C9444050C94000061E08FE04D
:1000C0000E94B30084EF91E00E94990411B882E08D
:1000D0008AB90895CF93DF93EC018FE00E9420014D
:1000E000882339F0BE018FE00E94220180E00E9447
:1000F000AF0480E00E94BE04882329F083E0FE0163
:1001000011928A95E9F7DF91CF91089562E08EE030
:100110000C94B300E0E0F1E0DC012C912083129616
:100120008C918183BF018EE00C945F02882369F07B
:10013000E62FF0E0EE5FFE4F21E030E001C0220F3D
:100140004A95EAF78081822B80830895E82FF0E0BA
:10015000EE5FFE4F808190E002C0959587956A958D
:10016000E2F781700895803108F067C0E82FF0E071
:10017000E454FF4F0C943B05CC00D200D700DC00C8
:10018000E100E600EB00F000F500FA00FF000401DA
:1001900009010E011301180123E040E051E080E065
:1001A0000C949B0328E041E051E081E0F9CF24E08A
:1001B00042E051E082E0F4CF28E043E051E083E008
:1001C000EFCF24E044E051E084E0EACF28E045E0CE
:1001D00051E085E0E5CF27E040E052E086E0E0CF67
:1001E00028E041E052E087E0DBCF23E042E052E04C
:1001F00088E0D6CF28E043E052E089E0D1CF28E084
:1002000041E054E08AE0CCCF28E043E054E08BE0CA
:10021000C7CF28E04BE054E08CE0C2CF28E041E0BB
:1002200055E08DE0BDCF28E044EF55EE8EE0B8CF2D
:1002300028E045EE50E58FE0B3CF08950C94B1036C
:100240000C940C041F93CF93DF93182FEB0162E003
:1002500071E00E942904103108F030C0E12FF0E075
:10026000EC5CFE4F0C943B054401BC016201BC01F7
:100270006F017C019B01BC01D501FC0115021F022D
:100280002C0235024E02550280910201888360E003
:1002900081E00E94A600898361E081E00E94A600BF
:1002A0008A8362E081E00E94A6008B8363E081E0A4
:1002B0000E94A6008C83809104018D83DF91CF91F1
:1002C0001F910895809102018883809103018983A1
:1002D000809104018A83809105018B83EFCF809107
:1002E000020190910301A0910401B091050188835E
:1002F0009983AA83BB83E2CF809102018883809196
:100300000301909104019A83898380910501909162
:1003100006019C838B83809107018D838091080166
:100320008E83809109018F708F838091090182955E
:100330008F708887C3CF80910201909103019983C8
:10034000888380910401909105019B838A83809129
:100350000601909107019D838C8360E086E00E94F6
:10036000A6008E8361E086E00E94A6008F8362E093
:1003700086E00E94A600DDCF8091020190910301EA
:100380009983888380910401909105019B838A83DE
:1003900080910601909107019D838C8380910801D3
:1003A000909109019F838E8389CF80910201909162
:1003B00003019983888360E082E00E94A6008A831B
:1003C00061E082E00E94A6008B8362E082E00E94EE
:1003D000A6008C8363E082E00E94A6008D8364E027
:1003E00082E00E94A6008E8365E082E00E94A60063
:1003F0008F8366E082E0BDCF7091020160910301BE
:1004000050910401409105013091060120910701AE
:100410009091080180910901788369835A834B8305
:100420003C832D839E838F8349CF809102018883F3
:1004300080910401909105019A8389833FCF809137
:10044000020190910301A0910401B09105018883FC
:100450009983AA83BB8332CF8091060190910701D3
:10046000A0910801B0910901F2CF80910201909111
:100470000301A0910401B091050188839983AA83A7
:10048000BB838091060190910701A0910801B09172
:1004900009018C839D83AE83BF8310CF80910201BD
:1004A000898380910401888309CF80910201898327
:1004B000809104018883809106018A83FFCE1F9377
:1004C000CF93DF93182FEB011092020110920301DA
:1004D000109204011092050110920601109207017A
:1004E0001092080110920901803108F030C0E82F05
:1004F000F0E0E358FD4F0C943B058D020903AF0279
:100500000903BC02C702E7020903200347035C0397
:10051000BC026203670378038C0388818093020125
:1005200040E061E089810E94960041E061E08A81BB
:100530000E94960042E061E08B810E94960043E0B9
:1005400061E08C810E9496008D818093040162E0BD
:1005500071E0812FDF91CF911F910C94430488812A
:10056000809302018981809303018A818093040131
:100570008B8180930501EBCF388129819A818B8112
:10058000309302012093030190930401F2CF8881FC
:100590008093020199818A819093030180930401E1
:1005A0009B818C8190930501809306018D818093BE
:1005B00007018E8180930801888590E1899F9001D1
:1005C00011248F818F70822B80930901C0CF988175
:1005D000898190930201809303019A818B8190938A
:1005E0000401809305019C818D8190930601809385
:1005F000070140E066E08E810E94960041E066E0DF
:100600008F810E94960042E066E088850E949600F5
:100610009ECF9881898190930201809303019A81F2
:100620008B8190930401809305019C818D8190932F
:100630000601809307019E818F8190930801C4CFAA
:1006400098818981909302018093030140E062E0E8
:100650008A810E94960041E062E08B810E949600B0
:1006600042E062E08C810E94960043E062E08D816E
:100670000E94960044E062E08E810E94960045E070
:1006800062E08F810E94960046E062E0BECF7881F2
:1006900069815A814B813C812D819E818F8170932C
:1006A00002016093030150930401409305013093CC
:1006B000060120930701C1CF8881809302019981AF
:1006C0008A8162CF388129819A818B81F0CF3881EC
:1006D00029819A818B8130930201209303019093A9
:1006E0000401809305013C812D819E818F81DFCFA4
:1006F00089818093020180930301888180930401A2
:1007000088818093050110920601109207011092D2
:100710000801109209011BCF898180930201809307
:1007200003018881809304018881809305018A8177
:1007300080930601EACF90E0DC01A65FBE4F6C9388
:10074000880F991F880F991FFC01E65FFE4F70E02C
:1007500060E0418B528B638B748BAB5ABF4F2C93F1
:1007600008951F93CF93DF93579A8EE08093E20012
:100770008CE08093E30087E38093E400EBE1F1E019
:100780008AE091E030E020E0CFEFD0EE15E030934A
:10079000ED004191519161917191A3E0769567953A
:1007A00057954795AA95D1F74093F300DF01149729
:1007B0004C914295440F407E4093F2001092F1001C
:1007C0001092F000C093F700D093F6001092F5005D
:1007D0001093F4001092EE00AC014B5A5F4FDA0117
:1007E0004C914093EF00DC014C910196413029F48B
:1007F0004091EF0040684093EF002F5F305F213160
:1008000031F682E08093D8008091D90082FFFCCF3E
:10081000DF91CF911F910895482F282F30E0883025
:1008200068F49091DC00892F90E002C0959587953F
:100830004A95E2F780959095817008958091DD004A
:1008400090E02850310902C0959587952A95E2F7E6
:10085000F1CF982F9295907F9093ED00262FDB019A
:10086000E82FF0E0E15AFE4F90818A2F821B891712
:1008700030F08091EF0080688093EF0008958091C0
:10088000FA008D93F1CF1F93CF93DF93C82FD62F0C
:10089000172F0E940C048823B1F08C2F8295807F43
:1008A0008093ED002D2FAD2FB12FEC2FF0E0E15A0A
:1008B000FE4F90818A2F821B891748F08091EF00AC
:1008C00080648093EF00DF91CF911F9108958D9107
:1008D0008093FA00EECFF89410928000E1E8F0E007
:1008E00088E180831092820083E294EF90938700E6
:1008F0008093860080E280936F0080818360808394
:1009000078940895F894809170018111109270018B
:10091000789408951F920F920FB60F9211248F931F
:1009200081E0809370018F910F900FBE0F901F9008
:1009300018959093990180939801E1E7F1E081E0A7
:10094000819391E0EE37F907D9F7F8948BE084BDF5
:1009500082E080936E0089EF87BD78940895F894C3
:1009600090E0FC01EE0FFF1FE258FE4F1182108253
:1009700078948F589E4FFC0110820895F894E82FC8
:10098000F0E0DF01AA0FBB1FA258BE4F2D913C9192
:1009900080919801909199012817390748F0EF58F4
:1009A000FE4F8081811104C0789481E08083089596
:1009B000789480E008951F920F920FB60F92112441
:1009C0000BB60F922F933F934F935F938F939F9309
:1009D000EF93FF93409198015091990190E080E04E
:1009E000FC01EE0FFF1FE258FE4F208131812417DA
:1009F000350730F4208131812F5F3F4F31832083D1
:100A000001968D30910561F7FF91EF919F918F9144
:100A10005F914F913F912F910F900BBE0F900FBEA2
:100A20000F901F9018950E946B040E9486000E94F0
:100A30001E012FEF84E39CE0215080409040E1F7BD
:100A400000C0000001E010E0CCE0D0E00E94820491
:100A50008823E1F38AE991E00E946A0010939B01E8
:100A600000939A01D0939D01C0939C018AE991E083
:100A70000E948A00EBCFEE0FFF1F0024001C0BBE6C
:0C0A80000790F691E02D0994F894FFCF48
:00000001FF
