:100000000C944A000C945C000C945C000C945C0012
:100010000C945C000C945C000C945C000C945C00F0
:100020000C945C000C945C000C945C000C947804C0
:100030000C945C000C945C000C945C000C945C00D0
:100040000C94C9040C945C000C945C000C945C004F
:100050000C945C000C945C000C945C000C945C00B0
:100060000C945C000C945C000C945C000C945C00A0
:100070000C945C000C945C000C945C000C945C0090
:100080000C945C000C945C000C945C000C945C0080
:100090000C945C0011241FBECFEFD0E1DEBFCDBFBA
:1000A00021E0A0E0B1E001C01D92A23AB207E1F761
:1000B0000E9401050C9439050C94000061E08FE06A
:1000C0000E94B90084EF91E00E94870411B882E099
:1000D0008AB90895CF93DF93EC018FE00E94260147
:1000E000882339F0BE018FE00E94280180E00E9441
:1000F0009D0480E00E94AC04882329F085E0FE0185
:1001000011928A95E9F7DF91CF91089562E08EE030
:100110000C94B900CF93DF9300D0CDB7DEB79A83AC
:100120008983BE016F5F7F4F8EE00E9462020F9055
:100130000F90DF91CF910895882369F0E62FF0E0CA
:10014000E050FF4F21E030E001C0220F4A95EAF76E
:100150008081822B80830895E82FF0E0E050FF4FEC
:10016000808190E002C0959587956A95E2F781704D
:100170000895803108F067C0E82FF0E0EE53FF4F9C
:100180000C943005D200D800DD00E200E700EC005E
:10019000F100F600FB00000105010A010F01140146
:1001A00019011E0123E040E051E080E00C94890336
:1001B00028E041E051E081E0F9CF24E042E051E065
:1001C00082E0F4CF28E043E051E083E0EFCF24E089
:1001D00044E051E084E0EACF28E045E051E085E0EA
:1001E000E5CF27E040E052E086E0E0CF28E041E0C4
:1001F00052E087E0DBCF23E042E052E088E0D6CF58
:1002000028E043E052E089E0D1CF28E041E054E02B
:100210008AE0CCCF28E043E054E08BE0C7CF28E071
:100220004BE054E08CE0C2CF28E041E055E08DE0A7
:10023000BDCF28E044EF55EE8EE0B8CF28E045EE84
:1002400050E58FE0B3CF08950C949F030C94FA030C
:100250001F93CF93DF93182FEB0160E071E00E94B2
:100260001704103108F030C0E12FF0E0E65CFE4FDB
:100270000C9430054A01C2016801C2017501820176
:10028000A101C201DB0102021B02250232023B0274
:100290006401540280910001888360E081E00E9443
:1002A000AC00898361E081E00E94AC008A8362E057
:1002B00081E00E94AC008B8363E081E00E94AC008F
:1002C0008C83809102018D83DF91CF911F910895DE
:1002D00080910001888380910101898380910201CE
:1002E0008A83809103018B83EFCF809100019091ED
:1002F0000101A0910201B091030188839983AA832F
:10030000BB83E2CF809100018883809101019091AD
:1003100002019A83898380910301909104019C8357
:100320008B83809105018D83809106018E8380915E
:1003300007018F708F838091070182958F70888766
:10034000C3CF8091000190910101998388838091AE
:100350000201909103019B838A8380910401909113
:1003600005019D838C8360E086E00E94AC008E8353
:1003700061E086E00E94AC008F8362E086E00E942C
:10038000AC00DDCF809100019091010199838883B9
:1003900080910201909103019B838A8380910401E3
:1003A000909105019D838C838091060190910701B6
:1003B0009F838E8389CF8091000190910101998361
:1003C000888360E082E00E94AC008A8361E082E082
:1003D0000E94AC008B8362E082E00E94AC008C83C0
:1003E00063E082E00E94AC008D8364E082E00E94C2
:1003F000AC008E8365E082E00E94AC008F8366E0F3
:1004000082E0BDCF70910001609101015091020125
:100410004091030130910401209105019091060162
:1004200080910701788369835A834B833C832D83B2
:100430009E838F8349CF8091000188838091020140
:10044000909103019A8389833FCF8091000190911D
:100450000101A0910201B091030188839983AA83CD
:10046000BB8332CF8091040190910501A0910601D8
:10047000B0910701F2CF8091000190910101A0910C
:100480000201B091030188839983AA83BB83809181
:10049000040190910501A0910601B09107018C83A0
:1004A0009D83AE83BF8310CF8091000190E09B833A
:1004B0008A838091020190E099838883809104016E
:1004C0008C8302CF1F93CF93DF93182FEB011092F1
:1004D000000110920101109202011092030110928A
:1004E00004011092050110920601109207018F304D
:1004F00078F5E82FF0E0E158FD4F0C9430058E02BE
:100500000A03B0020A03BD02C802E8020A0321037B
:1005100048035D03BD026303680379038881809308
:10052000000140E061E089810E949C0041E061E0BF
:100530008A810E949C0042E061E08B810E949C00C5
:1005400043E061E08C810E949C008D8180930201D8
:1005500060E071E0812FDF91CF911F910C94310405
:100560008881809300018981809301018A81809331
:1005700002018B8180930301EBCF388129819A811D
:100580008B81309300012093010190930201F2CFFF
:1005900088818093000199818A81909301018093E1
:1005A00002019B818C8190930301809304018D81D2
:1005B000809305018E8180930601888590E1899F53
:1005C000900111248F818F70822B80930701C0CFFF
:1005D0009881898190930001809301019A818B8198
:1005E00090930201809303019C818D81909304017B
:1005F0008093050140E066E08E810E949C0041E00E
:1006000066E08F810E949C0042E066E088850E943F
:100610009C009ECF98818981909300018093010175
:100620009A818B8190930201809303019C818D813B
:1006300090930401809305019E818F819093060120
:10064000C4CF98818981909300018093010140E09B
:1006500062E08A810E949C0041E062E08B810E94FE
:100660009C0042E062E08C810E949C0043E062E0DA
:100670008D810E949C0044E062E08E810E949C007B
:1006800045E062E08F810E949C0046E062E0BECFC0
:10069000788169815A814B813C812D819E818F8136
:1006A0007093000160930101509302014093030194
:1006B0003093040120930501C1CF8881809300010C
:1006C00099818A8162CF388129819A818B81F0CF8B
:1006D000388129819A818B81309300012093010117
:1006E00090930201809303013C812D819E818F8133
:1006F000DFCF8A81809300018881809302018C8101
:1007000080930401109205011092060110920701D6
:100710001FCF90E0DC01A85FBE4F6C93880F991F3C
:10072000880F991FFC01E85FFE4F70E060E0418B8D
:10073000528B638B748BAB5ABF4F2C9308951F93CE
:10074000CF93DF93579A8EE08093E2008CE0809302
:10075000E30087E38093E400E9E1F1E088E091E0E1
:1007600030E020E0CFEFD0EE15E03093ED00419186
:10077000519161917191A3E0769567955795479551
:10078000AA95D1F74093F300DF0114974C9142955D
:10079000440F407E4093F2001092F1001092F0005E
:1007A000C093F700D093F6001092F5001093F40078
:1007B0001092EE00AC014B5A5F4FDA014C9140931E
:1007C000EF00DC014C910196413029F44091EF009B
:1007D00040684093EF002F5F305F213131F682E0B7
:1007E0008093D8008091D90082FFFCCFDF91CF9118
:1007F0001F910895482F282F30E0883068F4909199
:10080000DC00892F90E002C0959587954A95E2F724
:1008100080959095817008958091DD0090E028503A
:10082000310902C0959587952A95E2F7F1CF982F67
:100830009295907F9093ED00262FDB01E82FF0E05A
:10084000E35AFE4F90818A2F821B891730F08091E6
:10085000EF0080688093EF0008958091FA008D93F7
:10086000F1CF1F93CF93DF93C82FD62F172F0E945E
:10087000FA038823B1F08C2F8295807F8093ED005E
:100880002D2FAD2FB12FEC2FF0E0E35AFE4F9081CA
:100890008A2F821B891748F08091EF008064809333
:1008A000EF00DF91CF911F9108958D918093FA0011
:1008B000EECFF89410928000E1E8F0E088E18083C8
:1008C0001092820083E294EF9093870080938600D9
:1008D00080E280936F0080818360808378940895A4
:1008E000F89480916E01811110926E0178940895B0
:1008F0001F920F920FB60F9211248F9381E0809375
:100900006E018F910F900FBE0F901F9018959093CE
:10091000970180939601EFE6F1E081E0819391E009
:10092000EC37F907D9F7F8948BE084BD82E0809327
:100930006E0089EF87BD78940895F89490E0FC01EB
:10094000EE0FFF1FE458FE4F1182108278948159F8
:100950009E4FFC0110820895F894E82FF0E0DF012B
:10096000AA0FBB1FA458BE4F2D913C9180919601B8
:10097000909197012817390748F0E159FE4F80817F
:10098000811104C0789481E080830895789480E098
:1009900008951F920F920FB60F9211240BB60F926B
:1009A0002F933F934F935F938F939F93EF93FF9377
:1009B000409196015091970190E080E0FC01EE0F8C
:1009C000FF1FE458FE4F208131812417350730F492
:1009D000208131812F5F3F4F3183208301968D30FD
:1009E000910561F7FF91EF919F918F915F914F91E9
:1009F0003F912F910F900BBE0F900FBE0F901F9045
:100A000018950E9459040E9486000E9424012FEF2D
:100A100084E39CE0215080409040E1F700C000005A
:100A2000C1E00E9470048823E1F38DE991E00E9407
:100A30006A0080919D0190919E019093990180930D
:100A4000980180919F019091A00190939B018093C8
:100A50009A01C0939C0188E991E00E948A00E1CF4D
:100A6000EE0FFF1F0024001C0BBE0790F691E02D37
:060A70000994F894FFCF89
:00000001FF
