:100000000C944A000C945C000C945C000C945C0012
:100010000C945C000C945C000C945C000C945C00F0
:100020000C945C000C945C000C945C000C94270411
:100030000C945C000C945C000C945C000C945C00D0
:100040000C9478040C945C000C945C000C945C00A0
:100050000C945C000C945C000C945C000C945C00B0
:100060000C945C000C945C000C945C000C945C00A0
:100070000C945C000C945C000C945C000C945C0090
:100080000C945C000C945C000C945C000C945C0080
:100090000C945C0011241FBECFEFD0E1DEBFCDBFBA
:1000A00021E0A0E0B1E001C01D92A237B207E1F764
:1000B0000E94B0040C946B050C94000062E08EE08A
:1000C0000C94840060E071E08EE00C94240288239C
:1000D00069F0E62FF0E0EE5FFE4F21E030E001C076
:1000E000220F4A95EAF78081822B80830895E82FBA
:1000F000F0E0EE5FFE4F808190E002C0959587951D
:100100006A95E2F7817008958F3008F061C0E82F9A
:10011000F0E0E357FF4F0C94C6049C00A200A70038
:10012000AC00B100B600BB00C000C500CA00CF00E3
:10013000D400D900DE00E30023E040E051E080E09D
:100140000C944C0328E041E051E081E0F9CF24E039
:1001500042E051E082E0F4CF28E043E051E083E068
:10016000EFCF24E044E051E084E0EACF28E045E02E
:1001700051E085E0E5CF27E040E052E086E0E0CFC7
:1001800028E041E052E087E0DBCF23E042E052E0AC
:1001900088E0D6CF28E043E052E089E0D1CF28E0E4
:1001A00041E054E08AE0CCCF28E043E054E08BE02B
:1001B000C7CF28E04BE054E08CE0C2CF28E041E01C
:1001C00055E08DE0BDCF28E041E056E08EE0B8CFAD
:1001D00008950C945B030C94A9031F93CF93DF93B2
:1001E000182FEB0162E071E00E94C6031F3078F522
:1001F000E12FF0E0E250FF4F0C94C6040D018501A1
:100200002B01850138014501640185019E01C5016D
:10021000DE01E801F501FE011702809102018883E9
:1002200060E081E00E947700898361E081E00E94C4
:1002300077008A8362E081E00E9477008B8363E02D
:1002400081E00E9477008C83809104018D83DF918F
:10025000CF911F91089580910201888380910301BD
:100260008983809104018A83809105018B83EFCF7C
:100270008091020190910301A0910401B0910501C8
:1002800088839983AA83BB83E2CF8091020188830C
:1002900080910301909104019A83898380910501E3
:1002A000909106019C838B83809107018D838091BF
:1002B00008018E83809109018F708F8380910901DD
:1002C00082958F708887C3CF80910201909103013E
:1002D0009983888380910401909105019B838A838F
:1002E00080910601909107019D838C8360E086E0F8
:1002F0000E9477008E8361E086E00E9477008F8302
:1003000062E086E00E947700DDCF8091020190914B
:1003100003019983888380910401909105019B8357
:100320008A8380910601909107019D838C8380913F
:100330000801909109019F838E8389CF80910201EA
:10034000909103019983888360E082E00E947700A6
:100350008A8361E082E00E9477008B8362E082E022
:100360000E9477008C8363E082E00E9477008D8397
:1003700064E082E00E9477008E8365E082E00E9464
:1003800077008F8366E082E0BDCF709102016091BB
:100390000301509104014091050130910601209123
:1003A00007019091080180910901788369835A833C
:1003B0004B833C832D839E838F8349CF80910201A1
:1003C000888380910401909105019A8389833FCFAE
:1003D0008091020190910301A0910401B091050167
:1003E00088839983AA83BB8332CF80910601909141
:1003F0000701A0910801B0910901F2CF809102019B
:1004000090910301A0910401B09105018883998323
:10041000AA83BB838091060190910701A0910801F6
:10042000B09109018C839D83AE83BF8310CF60910F
:1004300002017091030180910401909105010E94D5
:10044000CF047983688303CF1F93CF93DF93182F53
:10045000EB0110920201109203011092040110921C
:1004600005011092060110920701109208011092E6
:1004700009018F3078F5E82FF0E0EF5BFD4F0C9429
:10048000C6045002CC027202CC027F028A02AA0287
:10049000CC02E3020A031F037F0225032A033B0366
:1004A00088818093020140E061E089810E946700B9
:1004B00041E061E08A810E94670042E061E08B8157
:1004C0000E94670043E061E08C810E9467008D819B
:1004D0008093040162E071E0812FDF91CF911F9141
:1004E0000C94E00388818093020189818093030149
:1004F0008A81809304018B8180930501EBCF388141
:1005000029819A818B81309302012093030190937A
:100510000401F2CF88818093020199818A819093AE
:100520000301809304019B818C819093050180934A
:1005300006018D81809307018E8180930801888553
:1005400090E1899F900111248F818F70822B80937D
:100550000901C0CF988189819093020180930301A2
:100560009A818B8190930401809305019C818D81F8
:10057000909306018093070140E066E08E810E941F
:10058000670041E066E08F810E94670042E066E01C
:1005900088850E9467009ECF98818981909302018F
:1005A000809303019A818B819093040180930501CC
:1005B0009C818D8190930601809307019E818F819C
:1005C00090930801C4CF9881898190930201809310
:1005D000030140E062E08A810E94670041E062E03E
:1005E0008B810E94670042E062E08C810E9467007C
:1005F00043E062E08D810E94670044E062E08E810A
:100600000E94670045E062E08F810E94670046E03B
:1006100062E0BECF788169815A814B813C812D8116
:100620009E818F81709302016093030150930401B6
:10063000409305013093060120930701C1CF8881C3
:100640008093020199818A8162CF388129819A81C0
:100650008B81F0CF388129819A818B81309302017F
:100660002093030190930401809305013C812D8127
:100670009E818F81DFCF68817981072E000C880BE6
:10068000990B0E9407056093020170930301809308
:100690000401909305011ECF90E0DC01A65FBE4FE0
:1006A0006C93880F991FFC01E65FFE4F508B4787C4
:1006B0009D962C930895CF93DF93579A8EE0809365
:1006C000E2008CE08093E30087E38093E400A9E1FB
:1006D000B1E0EAE0F1E080E04FEF50EE65E08093BA
:1006E000ED002D913D9193E0369527959A95E1F790
:1006F0002093F300ED01229798819295990F907EB7
:100700009093F2001092F1001092F0004093F700E5
:100710005093F6001092F5006093F4001092EE00F2
:1007200095A59093EF0090813196913029F49091A6
:10073000EF0090689093EF00805F803F81F682E049
:100740008093D8008091D90082FFFCCFDF91CF91B8
:100750000895482F282F30E0883068F49091DC000D
:10076000892F90E002C0959587954A95E2F780958C
:100770009095817008958091DD0090E028503109B6
:1007800002C0959587952A95E2F7F1CF982F92951B
:10079000907F9093ED00262FDB01E82FF0E0E95CDD
:1007A000FE4F90818A2F821B891730F08091EF00D5
:1007B00080688093EF0008958091FA008D93F1CFC7
:1007C0001F93CF93DF93C82FD62F172F0E94A90313
:1007D0008823B1F08C2F8295807F8093ED002D2FA0
:1007E000AD2FB12FEC2FF0E0E95CFE4F90818A2F06
:1007F000821B891748F08091EF0080648093EF009E
:10080000DF91CF911F9108958D918093FA00EECFE3
:10081000F89410928000E1E8F0E088E18083109283
:10082000820083E294EF909387008093860080E2B9
:1008300080936F0080818360808378940895F8941A
:1008400080914601811110924601789408951F927B
:100850000F920FB60F9211248F9381E0809346017F
:100860008F910F900FBE0F901F90189590936F016E
:1008700080936E01E7E4F1E081E0819391E0E4355B
:10088000F907D9F7F8948BE084BD82E080936E007D
:1008900089EF87BD78940895F89490E0FC01EE0FFD
:1008A000FF1FEC5AFE4F118210827894895B9E4F95
:1008B000FC0110820895F894E82FF0E0DF01AA0F00
:1008C000BB1FAC5ABE4F2D913C9180916E0190910F
:1008D0006F012817390748F0E95BFE4F80818111CD
:1008E00004C0789481E080830895789480E008952E
:1008F0001F920F920FB60F9211240BB60F922F93E7
:100900003F934F935F938F939F93EF93FF93409108
:100910006E0150916F0190E080E0FC01EE0FFF1F2F
:10092000EC5AFE4F208131812417350730F42081A5
:1009300031812F5F3F4F3183208301968D309105A8
:1009400061F7FF91EF919F918F915F914F913F914F
:100950002F910F900BBE0F900FBE0F901F90189508
:100960002FEF84E39CE0215080409040E1F700C0ED
:1009700000000E9408040E945E000E94E9000E949C
:100980001F048823E1F30E946200F9CFEE0FFF1FDE
:100990000024001C0BBE0790F691E02D09940E94E4
:1009A000D6046894B1110C94650508950E944A0517
:1009B00088F09F5798F0B92F9927B751B0F0E1F020
:1009C000660F771F881F991F1AF0BA95C9F714C0D0
:1009D000B13091F00E946405B1E008950C94640573
:1009E000672F782F8827B85F39F0B93FCCF3869509
:1009F00077956795B395D9F73EF490958095709566
:100A000061957F4F8F4F9F4F0895E89409C097FBE2
:100A10003EF490958095709561957F4F8F4F9F4FD5
:100A20009923A9F0F92F96E9BB279395F695879519
:100A300077956795B795F111F8CFFAF4BB0F11F4DC
:100A400060FF1BC06F5F7F4F8F4F9F4F16C0882383
:100A500011F096E911C0772321F09EE8872F762FB9
:100A600005C0662371F096E8862F70E060E02AF0FA
:100A70009A95660F771F881FDAF7880F96958795E6
:100A800097F9089557FD9058440F551F59F05F3F4F
:100A900071F04795880F97FB991F61F09F3F79F0A0
:100AA00087950895121613061406551FF2CF469522
:100AB000F1DF08C0161617061806991FF1CF8695A4
:100AC0007105610508940895E894BB276627772788
:0A0AD000CB0197F90895F894FFCFC9
:00000001FF
